{
  "abi": [
    {
      "type": "constructor",
      "inputs": [],
      "stateMutability": "nonpayable"
    },
    {
      "type": "function",
      "name": "MAX_TOKENS",
      "inputs": [],
      "outputs": [
        {
          "name": "",
          "type": "uint256",
          "internalType": "uint256"
        }
      ],
      "stateMutability": "view"
    },
    {
      "type": "function",
      "name": "approve",
      "inputs": [
        {
          "name": "to",
          "type": "address",
          "internalType": "address"
        },
        {
          "name": "tokenId",
          "type": "uint256",
          "internalType": "uint256"
        }
      ],
      "outputs": [],
      "stateMutability": "nonpayable"
    },
    {
      "type": "function",
      "name": "balanceOf",
      "inputs": [
        {
          "name": "owner",
          "type": "address",
          "internalType": "address"
        }
      ],
      "outputs": [
        {
          "name": "",
          "type": "uint256",
          "internalType": "uint256"
        }
      ],
      "stateMutability": "view"
    },
    {
      "type": "function",
      "name": "baseURI",
      "inputs": [],
      "outputs": [
        {
          "name": "",
          "type": "string",
          "internalType": "string"
        }
      ],
      "stateMutability": "view"
    },
    {
      "type": "function",
      "name": "getApproved",
      "inputs": [
        {
          "name": "tokenId",
          "type": "uint256",
          "internalType": "uint256"
        }
      ],
      "outputs": [
        {
          "name": "",
          "type": "address",
          "internalType": "address"
        }
      ],
      "stateMutability": "view"
    },
    {
      "type": "function",
      "name": "isApprovedForAll",
      "inputs": [
        {
          "name": "owner",
          "type": "address",
          "internalType": "address"
        },
        {
          "name": "operator",
          "type": "address",
          "internalType": "address"
        }
      ],
      "outputs": [
        {
          "name": "",
          "type": "bool",
          "internalType": "bool"
        }
      ],
      "stateMutability": "view"
    },
    {
      "type": "function",
      "name": "mint",
      "inputs": [
        {
          "name": "to",
          "type": "address",
          "internalType": "address"
        }
      ],
      "outputs": [],
      "stateMutability": "nonpayable"
    },
    {
      "type": "function",
      "name": "name",
      "inputs": [],
      "outputs": [
        {
          "name": "",
          "type": "string",
          "internalType": "string"
        }
      ],
      "stateMutability": "view"
    },
    {
      "type": "function",
      "name": "nextTokenId",
      "inputs": [],
      "outputs": [
        {
          "name": "",
          "type": "uint256",
          "internalType": "uint256"
        }
      ],
      "stateMutability": "view"
    },
    {
      "type": "function",
      "name": "owner",
      "inputs": [],
      "outputs": [
        {
          "name": "",
          "type": "address",
          "internalType": "address"
        }
      ],
      "stateMutability": "view"
    },
    {
      "type": "function",
      "name": "ownerOf",
      "inputs": [
        {
          "name": "tokenId",
          "type": "uint256",
          "internalType": "uint256"
        }
      ],
      "outputs": [
        {
          "name": "",
          "type": "address",
          "internalType": "address"
        }
      ],
      "stateMutability": "view"
    },
    {
      "type": "function",
      "name": "renounceOwnership",
      "inputs": [],
      "outputs": [],
      "stateMutability": "nonpayable"
    },
    {
      "type": "function",
      "name": "safeTransferFrom",
      "inputs": [
        {
          "name": "from",
          "type": "address",
          "internalType": "address"
        },
        {
          "name": "to",
          "type": "address",
          "internalType": "address"
        },
        {
          "name": "tokenId",
          "type": "uint256",
          "internalType": "uint256"
        }
      ],
      "outputs": [],
      "stateMutability": "nonpayable"
    },
    {
      "type": "function",
      "name": "safeTransferFrom",
      "inputs": [
        {
          "name": "from",
          "type": "address",
          "internalType": "address"
        },
        {
          "name": "to",
          "type": "address",
          "internalType": "address"
        },
        {
          "name": "tokenId",
          "type": "uint256",
          "internalType": "uint256"
        },
        {
          "name": "data",
          "type": "bytes",
          "internalType": "bytes"
        }
      ],
      "outputs": [],
      "stateMutability": "nonpayable"
    },
    {
      "type": "function",
      "name": "setApprovalForAll",
      "inputs": [
        {
          "name": "operator",
          "type": "address",
          "internalType": "address"
        },
        {
          "name": "approved",
          "type": "bool",
          "internalType": "bool"
        }
      ],
      "outputs": [],
      "stateMutability": "nonpayable"
    },
    {
      "type": "function",
      "name": "setBaseURI",
      "inputs": [
        {
          "name": "newURI",
          "type": "string",
          "internalType": "string"
        }
      ],
      "outputs": [],
      "stateMutability": "nonpayable"
    },
    {
      "type": "function",
      "name": "supportsInterface",
      "inputs": [
        {
          "name": "interfaceId",
          "type": "bytes4",
          "internalType": "bytes4"
        }
      ],
      "outputs": [
        {
          "name": "",
          "type": "bool",
          "internalType": "bool"
        }
      ],
      "stateMutability": "view"
    },
    {
      "type": "function",
      "name": "symbol",
      "inputs": [],
      "outputs": [
        {
          "name": "",
          "type": "string",
          "internalType": "string"
        }
      ],
      "stateMutability": "view"
    },
    {
      "type": "function",
      "name": "tokenByIndex",
      "inputs": [
        {
          "name": "index",
          "type": "uint256",
          "internalType": "uint256"
        }
      ],
      "outputs": [
        {
          "name": "",
          "type": "uint256",
          "internalType": "uint256"
        }
      ],
      "stateMutability": "view"
    },
    {
      "type": "function",
      "name": "tokenOfOwnerByIndex",
      "inputs": [
        {
          "name": "owner",
          "type": "address",
          "internalType": "address"
        },
        {
          "name": "index",
          "type": "uint256",
          "internalType": "uint256"
        }
      ],
      "outputs": [
        {
          "name": "",
          "type": "uint256",
          "internalType": "uint256"
        }
      ],
      "stateMutability": "view"
    },
    {
      "type": "function",
      "name": "tokenURI",
      "inputs": [
        {
          "name": "tokenId",
          "type": "uint256",
          "internalType": "uint256"
        }
      ],
      "outputs": [
        {
          "name": "",
          "type": "string",
          "internalType": "string"
        }
      ],
      "stateMutability": "view"
    },
    {
      "type": "function",
      "name": "totalSupply",
      "inputs": [],
      "outputs": [
        {
          "name": "",
          "type": "uint256",
          "internalType": "uint256"
        }
      ],
      "stateMutability": "view"
    },
    {
      "type": "function",
      "name": "transferFrom",
      "inputs": [
        {
          "name": "from",
          "type": "address",
          "internalType": "address"
        },
        {
          "name": "to",
          "type": "address",
          "internalType": "address"
        },
        {
          "name": "tokenId",
          "type": "uint256",
          "internalType": "uint256"
        }
      ],
      "outputs": [],
      "stateMutability": "nonpayable"
    },
    {
      "type": "function",
      "name": "transferOwnership",
      "inputs": [
        {
          "name": "newOwner",
          "type": "address",
          "internalType": "address"
        }
      ],
      "outputs": [],
      "stateMutability": "nonpayable"
    },
    {
      "type": "event",
      "name": "Approval",
      "inputs": [
        {
          "name": "owner",
          "type": "address",
          "indexed": true,
          "internalType": "address"
        },
        {
          "name": "approved",
          "type": "address",
          "indexed": true,
          "internalType": "address"
        },
        {
          "name": "tokenId",
          "type": "uint256",
          "indexed": true,
          "internalType": "uint256"
        }
      ],
      "anonymous": false
    },
    {
      "type": "event",
      "name": "ApprovalForAll",
      "inputs": [
        {
          "name": "owner",
          "type": "address",
          "indexed": true,
          "internalType": "address"
        },
        {
          "name": "operator",
          "type": "address",
          "indexed": true,
          "internalType": "address"
        },
        {
          "name": "approved",
          "type": "bool",
          "indexed": false,
          "internalType": "bool"
        }
      ],
      "anonymous": false
    },
    {
      "type": "event",
      "name": "OwnershipTransferred",
      "inputs": [
        {
          "name": "previousOwner",
          "type": "address",
          "indexed": true,
          "internalType": "address"
        },
        {
          "name": "newOwner",
          "type": "address",
          "indexed": true,
          "internalType": "address"
        }
      ],
      "anonymous": false
    },
    {
      "type": "event",
      "name": "Transfer",
      "inputs": [
        {
          "name": "from",
          "type": "address",
          "indexed": true,
          "internalType": "address"
        },
        {
          "name": "to",
          "type": "address",
          "indexed": true,
          "internalType": "address"
        },
        {
          "name": "tokenId",
          "type": "uint256",
          "indexed": true,
          "internalType": "uint256"
        }
      ],
      "anonymous": false
    },
    {
      "type": "error",
      "name": "ERC721EnumerableForbiddenBatchMint",
      "inputs": []
    },
    {
      "type": "error",
      "name": "ERC721IncorrectOwner",
      "inputs": [
        {
          "name": "sender",
          "type": "address",
          "internalType": "address"
        },
        {
          "name": "tokenId",
          "type": "uint256",
          "internalType": "uint256"
        },
        {
          "name": "owner",
          "type": "address",
          "internalType": "address"
        }
      ]
    },
    {
      "type": "error",
      "name": "ERC721InsufficientApproval",
      "inputs": [
        {
          "name": "operator",
          "type": "address",
          "internalType": "address"
        },
        {
          "name": "tokenId",
          "type": "uint256",
          "internalType": "uint256"
        }
      ]
    },
    {
      "type": "error",
      "name": "ERC721InvalidApprover",
      "inputs": [
        {
          "name": "approver",
          "type": "address",
          "internalType": "address"
        }
      ]
    },
    {
      "type": "error",
      "name": "ERC721InvalidOperator",
      "inputs": [
        {
          "name": "operator",
          "type": "address",
          "internalType": "address"
        }
      ]
    },
    {
      "type": "error",
      "name": "ERC721InvalidOwner",
      "inputs": [
        {
          "name": "owner",
          "type": "address",
          "internalType": "address"
        }
      ]
    },
    {
      "type": "error",
      "name": "ERC721InvalidReceiver",
      "inputs": [
        {
          "name": "receiver",
          "type": "address",
          "internalType": "address"
        }
      ]
    },
    {
      "type": "error",
      "name": "ERC721InvalidSender",
      "inputs": [
        {
          "name": "sender",
          "type": "address",
          "internalType": "address"
        }
      ]
    },
    {
      "type": "error",
      "name": "ERC721NonexistentToken",
      "inputs": [
        {
          "name": "tokenId",
          "type": "uint256",
          "internalType": "uint256"
        }
      ]
    },
    {
      "type": "error",
      "name": "ERC721OutOfBoundsIndex",
      "inputs": [
        {
          "name": "owner",
          "type": "address",
          "internalType": "address"
        },
        {
          "name": "index",
          "type": "uint256",
          "internalType": "uint256"
        }
      ]
    },
    {
      "type": "error",
      "name": "OwnableInvalidOwner",
      "inputs": [
        {
          "name": "owner",
          "type": "address",
          "internalType": "address"
        }
      ]
    },
    {
      "type": "error",
      "name": "OwnableUnauthorizedAccount",
      "inputs": [
        {
          "name": "account",
          "type": "address",
          "internalType": "address"
        }
      ]
    }
  ],
  "bytecode": {
    "object": "0x60806040526001600c5534801561001557600080fd5b50604080518082018252600c81526b486f6f646c727a566572736560a01b6020808301919091528251808401909352600383526224292d60e91b9083015290338061007a57604051631e4fbdf760e01b81526000600482015260240160405180910390fd5b610083816100a5565b5060016100908382610196565b50600261009d8282610196565b505050610255565b600080546001600160a01b038381166001600160a01b0319831681178455604051919092169283917f8be0079c531659141344cd1fd0a4f28419497f9722a3daafe3b4186f6b6457e09190a35050565b634e487b7160e01b600052604160045260246000fd5b600181811c9082168061011f57607f821691505b60208210810361013f57634e487b7160e01b600052602260045260246000fd5b50919050565b601f821115610191576000816000526020600020601f850160051c8101602086101561016e5750805b601f850160051c820191505b8181101561018d5782815560010161017a565b5050505b505050565b81516001600160401b038111156101af576101af6100f5565b6101c3816101bd845461010b565b84610145565b602080601f8311600181146101f857600084156101e05750858301515b600019600386901b1c1916600185901b17855561018d565b600085815260208120601f198616915b8281101561022757888601518255948401946001909101908401610208565b50858210156102455787850151600019600388901b60f8161c191681555b5050505050600190811b01905550565b6116d8806102646000396000f3fe608060405234801561001057600080fd5b50600436106101585760003560e01c80636c0360eb116100c3578063a22cb4651161007c578063a22cb465146102b6578063b88d4fde146102c9578063c87b56dd146102dc578063e985e9c5146102ef578063f2fde38b14610302578063f47c84c51461031557600080fd5b80636c0360eb1461027157806370a0823114610279578063715018a61461028c57806375794a3c146102945780638da5cb5b1461029d57806395d89b41146102ae57600080fd5b80632f745c59116101155780632f745c59146101ff57806342842e0e146102125780634f6ccce71461022557806355f804b3146102385780636352211e1461024b5780636a6278421461025e57600080fd5b806301ffc9a71461015d57806306fdde0314610185578063081812fc1461019a578063095ea7b3146101c557806318160ddd146101da57806323b872dd146101ec575b600080fd5b61017061016b366004611194565b61031d565b60405190151581526020015b60405180910390f35b61018d610348565b60405161017c9190611201565b6101ad6101a8366004611214565b6103da565b6040516001600160a01b03909116815260200161017c565b6101d86101d3366004611249565b610403565b005b6009545b60405190815260200161017c565b6101d86101fa366004611273565b610412565b6101de61020d366004611249565b6104a2565b6101d8610220366004611273565b610507565b6101de610233366004611214565b610527565b6101d861024636600461133b565b610580565b6101ad610259366004611214565b610594565b6101d861026c366004611384565b61059f565b61018d6105b7565b6101de610287366004611384565b610645565b6101d861068d565b6101de600c5481565b6000546001600160a01b03166101ad565b61018d6106a1565b6101d86102c436600461139f565b6106b0565b6101d86102d73660046113db565b6106bb565b61018d6102ea366004611214565b6106d3565b6101706102fd366004611457565b61073b565b6101d8610310366004611384565b610769565b6101de606481565b60006001600160e01b0319821663780e9d6360e01b14806103425750610342826107a7565b92915050565b6060600180546103579061148a565b80601f01602080910402602001604051908101604052809291908181526020018280546103839061148a565b80156103d05780601f106103a5576101008083540402835291602001916103d0565b820191906000526020600020905b8154815290600101906020018083116103b357829003601f168201915b5050505050905090565b60006103e5826107f7565b506000828152600560205260409020546001600160a01b0316610342565b61040e828233610830565b5050565b6001600160a01b03821661044157604051633250574960e11b8152600060048201526024015b60405180910390fd5b600061044e83833361083d565b9050836001600160a01b0316816001600160a01b03161461049c576040516364283d7b60e01b81526001600160a01b0380861660048301526024820184905282166044820152606401610438565b50505050565b60006104ad83610645565b82106104de5760405163295f44f760e21b81526001600160a01b038416600482015260248101839052604401610438565b506001600160a01b03919091166000908152600760209081526040808320938352929052205490565b610522838383604051806020016040528060008152506106bb565b505050565b600061053260095490565b821061055b5760405163295f44f760e21b81526000600482015260248101839052604401610438565b6009828154811061056e5761056e6114c4565b90600052602060002001549050919050565b610588610912565b600b61040e8282611522565b6000610342826107f7565b6105ab81600c5461093f565b50600c80546001019055565b600b80546105c49061148a565b80601f01602080910402602001604051908101604052809291908181526020018280546105f09061148a565b801561063d5780601f106106125761010080835404028352916020019161063d565b820191906000526020600020905b81548152906001019060200180831161062057829003601f168201915b505050505081565b60006001600160a01b038216610671576040516322718ad960e21b815260006004820152602401610438565b506001600160a01b031660009081526004602052604090205490565b610695610912565b61069f60006109a4565b565b6060600280546103579061148a565b61040e3383836109f4565b6106c6848484610412565b61049c3385858585610a93565b60606106de826107f7565b5060006106e9610bbe565b905060008151116107095760405180602001604052806000815250610734565b8061071384610bcd565b6040516020016107249291906115e2565b6040516020818303038152906040525b9392505050565b6001600160a01b03918216600090815260066020908152604080832093909416825291909152205460ff1690565b610771610912565b6001600160a01b03811661079b57604051631e4fbdf760e01b815260006004820152602401610438565b6107a4816109a4565b50565b60006001600160e01b031982166380ac58cd60e01b14806107d857506001600160e01b03198216635b5e139f60e01b145b8061034257506301ffc9a760e01b6001600160e01b0319831614610342565b6000818152600360205260408120546001600160a01b03168061034257604051637e27328960e01b815260048101849052602401610438565b6105228383836001610c60565b60008061084b858585610d66565b90506001600160a01b0381166108a8576108a384600980546000838152600a60205260408120829055600182018355919091527f6e1540171b6c0c960b71a7020d9f60077f6af931a8bbf590da0223dacf75c7af0155565b6108cb565b846001600160a01b0316816001600160a01b0316146108cb576108cb8185610e5f565b6001600160a01b0385166108e7576108e284610ee0565b61090a565b846001600160a01b0316816001600160a01b03161461090a5761090a8585610f8f565b949350505050565b6000546001600160a01b0316331461069f5760405163118cdaa760e01b8152336004820152602401610438565b6001600160a01b03821661096957604051633250574960e11b815260006004820152602401610438565b60006109778383600061083d565b90506001600160a01b03811615610522576040516339e3563760e11b815260006004820152602401610438565b600080546001600160a01b038381166001600160a01b0319831681178455604051919092169283917f8be0079c531659141344cd1fd0a4f28419497f9722a3daafe3b4186f6b6457e09190a35050565b6001600160a01b038216610a2657604051630b61174360e31b81526001600160a01b0383166004820152602401610438565b6001600160a01b03838116600081815260066020908152604080832094871680845294825291829020805460ff191686151590811790915591519182527f17307eab39ab6107e8899845ad3d59bd9653f200f220920489ca2b5937696c31910160405180910390a3505050565b6001600160a01b0383163b15610bb757604051630a85bd0160e11b81526001600160a01b0384169063150b7a0290610ad5908890889087908790600401611611565b6020604051808303816000875af1925050508015610b10575060408051601f3d908101601f19168201909252610b0d9181019061164e565b60015b610b79573d808015610b3e576040519150601f19603f3d011682016040523d82523d6000602084013e610b43565b606091505b508051600003610b7157604051633250574960e11b81526001600160a01b0385166004820152602401610438565b805181602001fd5b6001600160e01b03198116630a85bd0160e11b14610bb557604051633250574960e11b81526001600160a01b0385166004820152602401610438565b505b5050505050565b6060600b80546103579061148a565b60606000610bda83610fdf565b600101905060008167ffffffffffffffff811115610bfa57610bfa6112af565b6040519080825280601f01601f191660200182016040528015610c24576020820181803683370190505b5090508181016020015b600019016f181899199a1a9b1b9c1cb0b131b232b360811b600a86061a8153600a8504945084610c2e57509392505050565b8080610c7457506001600160a01b03821615155b15610d36576000610c84846107f7565b90506001600160a01b03831615801590610cb05750826001600160a01b0316816001600160a01b031614155b8015610cc35750610cc1818461073b565b155b15610cec5760405163a9fbf51f60e01b81526001600160a01b0384166004820152602401610438565b8115610d345783856001600160a01b0316826001600160a01b03167f8c5be1e5ebec7d5bd14f71427d1e84f3dd0314c0f7b2291e5b200ac8c7c3b92560405160405180910390a45b505b5050600090815260056020526040902080546001600160a01b0319166001600160a01b0392909216919091179055565b6000828152600360205260408120546001600160a01b0390811690831615610d9357610d938184866110b7565b6001600160a01b03811615610dd157610db0600085600080610c60565b6001600160a01b038116600090815260046020526040902080546000190190555b6001600160a01b03851615610e00576001600160a01b0385166000908152600460205260409020805460010190555b60008481526003602052604080822080546001600160a01b0319166001600160a01b0389811691821790925591518793918516917fddf252ad1be2c89b69c2b068fc378daa952ba7f163c4a11628f55a4df523b3ef91a4949350505050565b6000610e6a83610645565b6000838152600860209081526040808320546001600160a01b0388168452600790925290912091925090818314610ec157600083815260208281526040808320548584528184208190558352600890915290208290555b6000938452600860209081526040808620869055938552525081205550565b600954600090610ef29060019061166b565b6000838152600a602052604081205460098054939450909284908110610f1a57610f1a6114c4565b906000526020600020015490508060098381548110610f3b57610f3b6114c4565b6000918252602080832090910192909255828152600a90915260408082208490558582528120556009805480610f7357610f7361168c565b6001900381819060005260206000200160009055905550505050565b60006001610f9c84610645565b610fa6919061166b565b6001600160a01b039093166000908152600760209081526040808320868452825280832085905593825260089052919091209190915550565b60008072184f03e93ff9f4daa797ed6e38ed64bf6a1f0160401b831061101e5772184f03e93ff9f4daa797ed6e38ed64bf6a1f0160401b830492506040015b6d04ee2d6d415b85acef8100000000831061104a576d04ee2d6d415b85acef8100000000830492506020015b662386f26fc10000831061106857662386f26fc10000830492506010015b6305f5e1008310611080576305f5e100830492506008015b612710831061109457612710830492506004015b606483106110a6576064830492506002015b600a83106103425760010192915050565b6110c283838361111b565b610522576001600160a01b0383166110f057604051637e27328960e01b815260048101829052602401610438565b60405163177e802f60e01b81526001600160a01b038316600482015260248101829052604401610438565b60006001600160a01b0383161580159061090a5750826001600160a01b0316846001600160a01b031614806111555750611155848461073b565b8061090a5750506000908152600560205260409020546001600160a01b03908116911614919050565b6001600160e01b0319811681146107a457600080fd5b6000602082840312156111a657600080fd5b81356107348161117e565b60005b838110156111cc5781810151838201526020016111b4565b50506000910152565b600081518084526111ed8160208601602086016111b1565b601f01601f19169290920160200192915050565b60208152600061073460208301846111d5565b60006020828403121561122657600080fd5b5035919050565b80356001600160a01b038116811461124457600080fd5b919050565b6000806040838503121561125c57600080fd5b6112658361122d565b946020939093013593505050565b60008060006060848603121561128857600080fd5b6112918461122d565b925061129f6020850161122d565b9150604084013590509250925092565b634e487b7160e01b600052604160045260246000fd5b600067ffffffffffffffff808411156112e0576112e06112af565b604051601f8501601f19908116603f01168101908282118183101715611308576113086112af565b8160405280935085815286868601111561132157600080fd5b858560208301376000602087830101525050509392505050565b60006020828403121561134d57600080fd5b813567ffffffffffffffff81111561136457600080fd5b8201601f8101841361137557600080fd5b61090a848235602084016112c5565b60006020828403121561139657600080fd5b6107348261122d565b600080604083850312156113b257600080fd5b6113bb8361122d565b9150602083013580151581146113d057600080fd5b809150509250929050565b600080600080608085870312156113f157600080fd5b6113fa8561122d565b93506114086020860161122d565b925060408501359150606085013567ffffffffffffffff81111561142b57600080fd5b8501601f8101871361143c57600080fd5b61144b878235602084016112c5565b91505092959194509250565b6000806040838503121561146a57600080fd5b6114738361122d565b91506114816020840161122d565b90509250929050565b600181811c9082168061149e57607f821691505b6020821081036114be57634e487b7160e01b600052602260045260246000fd5b50919050565b634e487b7160e01b600052603260045260246000fd5b601f821115610522576000816000526020600020601f850160051c810160208610156115035750805b601f850160051c820191505b81811015610bb55782815560010161150f565b815167ffffffffffffffff81111561153c5761153c6112af565b6115508161154a845461148a565b846114da565b602080601f831160018114611585576000841561156d5750858301515b600019600386901b1c1916600185901b178555610bb5565b600085815260208120601f198616915b828110156115b457888601518255948401946001909101908401611595565b50858210156115d25787850151600019600388901b60f8161c191681555b5050505050600190811b01905550565b600083516115f48184602088016111b1565b8351908301906116088183602088016111b1565b01949350505050565b6001600160a01b0385811682528416602082015260408101839052608060608201819052600090611644908301846111d5565b9695505050505050565b60006020828403121561166057600080fd5b81516107348161117e565b8181038181111561034257634e487b7160e01b600052601160045260246000fd5b634e487b7160e01b600052603160045260246000fdfea2646970667358221220c8df45030b6492f0ddc9b0364bf2ddf6abd63c693907e8c1d7f39b16b5477f2564736f6c63430008190033",
    "linkReferences": {}
  },
  "methodIdentifiers": {
    "MAX_TOKENS()": "f47c84c5",
    "approve(address,uint256)": "095ea7b3",
    "balanceOf(address)": "70a08231",
    "baseURI()": "6c0360eb",
    "getApproved(uint256)": "081812fc",
    "isApprovedForAll(address,address)": "e985e9c5",
    "mint(address)": "6a627842",
    "name()": "06fdde03",
    "nextTokenId()": "75794a3c",
    "owner()": "8da5cb5b",
    "ownerOf(uint256)": "6352211e",
    "renounceOwnership()": "715018a6",
    "safeTransferFrom(address,address,uint256)": "42842e0e",
    "safeTransferFrom(address,address,uint256,bytes)": "b88d4fde",
    "setApprovalForAll(address,bool)": "a22cb465",
    "setBaseURI(string)": "55f804b3",
    "supportsInterface(bytes4)": "01ffc9a7",
    "symbol()": "95d89b41",
    "tokenByIndex(uint256)": "4f6ccce7",
    "tokenOfOwnerByIndex(address,uint256)": "2f745c59",
    "tokenURI(uint256)": "c87b56dd",
    "totalSupply()": "18160ddd",
    "transferFrom(address,address,uint256)": "23b872dd",
    "transferOwnership(address)": "f2fde38b"
  },
  "id": 17
}